{
  "contractName": "MultiSigTA",
  "abi": [
    {
      "inputs": [],
      "stateMutability": "nonpayable",
      "type": "constructor"
    },
    {
      "anonymous": false,
      "inputs": [
        {
          "indexed": false,
          "internalType": "string",
          "name": "ticker",
          "type": "string"
        },
        {
          "indexed": false,
          "internalType": "address",
          "name": "sender",
          "type": "address"
        },
        {
          "indexed": false,
          "internalType": "uint256",
          "name": "amount",
          "type": "uint256"
        },
        {
          "indexed": false,
          "internalType": "uint256",
          "name": "depositId",
          "type": "uint256"
        },
        {
          "indexed": false,
          "internalType": "uint256",
          "name": "timeOfTransaction",
          "type": "uint256"
        }
      ],
      "name": "fundsDeposited",
      "type": "event"
    },
    {
      "anonymous": false,
      "inputs": [
        {
          "indexed": false,
          "internalType": "string",
          "name": "ticker",
          "type": "string"
        },
        {
          "indexed": false,
          "internalType": "address",
          "name": "sender",
          "type": "address"
        },
        {
          "indexed": false,
          "internalType": "address",
          "name": "receiver",
          "type": "address"
        },
        {
          "indexed": false,
          "internalType": "uint256",
          "name": "amount",
          "type": "uint256"
        },
        {
          "indexed": false,
          "internalType": "uint256",
          "name": "id",
          "type": "uint256"
        },
        {
          "indexed": false,
          "internalType": "uint256",
          "name": "approvals",
          "type": "uint256"
        },
        {
          "indexed": false,
          "internalType": "uint256",
          "name": "timeOfTransaction",
          "type": "uint256"
        }
      ],
      "name": "fundsTransfered",
      "type": "event"
    },
    {
      "anonymous": false,
      "inputs": [
        {
          "indexed": false,
          "internalType": "string",
          "name": "ticker",
          "type": "string"
        },
        {
          "indexed": false,
          "internalType": "address",
          "name": "sender",
          "type": "address"
        },
        {
          "indexed": false,
          "internalType": "uint256",
          "name": "amount",
          "type": "uint256"
        },
        {
          "indexed": false,
          "internalType": "uint256",
          "name": "withdrawalId",
          "type": "uint256"
        },
        {
          "indexed": false,
          "internalType": "uint256",
          "name": "timeOfTransaction",
          "type": "uint256"
        }
      ],
      "name": "fundsWithdrawed",
      "type": "event"
    },
    {
      "anonymous": false,
      "inputs": [
        {
          "indexed": false,
          "internalType": "address",
          "name": "addedBy",
          "type": "address"
        },
        {
          "indexed": false,
          "internalType": "string",
          "name": "ticker",
          "type": "string"
        },
        {
          "indexed": false,
          "internalType": "address",
          "name": "tokenAddress",
          "type": "address"
        },
        {
          "indexed": false,
          "internalType": "uint256",
          "name": "timeOfTransaction",
          "type": "uint256"
        }
      ],
      "name": "tokenAdded",
      "type": "event"
    },
    {
      "anonymous": false,
      "inputs": [
        {
          "indexed": false,
          "internalType": "string",
          "name": "ticker",
          "type": "string"
        },
        {
          "indexed": false,
          "internalType": "address",
          "name": "sender",
          "type": "address"
        },
        {
          "indexed": false,
          "internalType": "address",
          "name": "receiver",
          "type": "address"
        },
        {
          "indexed": false,
          "internalType": "uint256",
          "name": "amount",
          "type": "uint256"
        },
        {
          "indexed": false,
          "internalType": "uint256",
          "name": "id",
          "type": "uint256"
        },
        {
          "indexed": false,
          "internalType": "uint256",
          "name": "approvals",
          "type": "uint256"
        },
        {
          "indexed": false,
          "internalType": "uint256",
          "name": "timeOfTransaction",
          "type": "uint256"
        }
      ],
      "name": "transferApproved",
      "type": "event"
    },
    {
      "anonymous": false,
      "inputs": [
        {
          "indexed": false,
          "internalType": "string",
          "name": "ticker",
          "type": "string"
        },
        {
          "indexed": false,
          "internalType": "address",
          "name": "sender",
          "type": "address"
        },
        {
          "indexed": false,
          "internalType": "address",
          "name": "receiver",
          "type": "address"
        },
        {
          "indexed": false,
          "internalType": "uint256",
          "name": "amount",
          "type": "uint256"
        },
        {
          "indexed": false,
          "internalType": "uint256",
          "name": "id",
          "type": "uint256"
        },
        {
          "indexed": false,
          "internalType": "uint256",
          "name": "approvals",
          "type": "uint256"
        },
        {
          "indexed": false,
          "internalType": "uint256",
          "name": "timeOfTransaction",
          "type": "uint256"
        }
      ],
      "name": "transferCancelled",
      "type": "event"
    },
    {
      "anonymous": false,
      "inputs": [
        {
          "indexed": false,
          "internalType": "string",
          "name": "ticker",
          "type": "string"
        },
        {
          "indexed": false,
          "internalType": "address",
          "name": "sender",
          "type": "address"
        },
        {
          "indexed": false,
          "internalType": "address",
          "name": "receiver",
          "type": "address"
        },
        {
          "indexed": false,
          "internalType": "uint256",
          "name": "amount",
          "type": "uint256"
        },
        {
          "indexed": false,
          "internalType": "uint256",
          "name": "id",
          "type": "uint256"
        },
        {
          "indexed": false,
          "internalType": "uint256",
          "name": "approvals",
          "type": "uint256"
        },
        {
          "indexed": false,
          "internalType": "uint256",
          "name": "timeOfTransaction",
          "type": "uint256"
        }
      ],
      "name": "transferCreated",
      "type": "event"
    },
    {
      "anonymous": false,
      "inputs": [
        {
          "indexed": false,
          "internalType": "address",
          "name": "addedBy",
          "type": "address"
        },
        {
          "indexed": false,
          "internalType": "address",
          "name": "ownerAdded",
          "type": "address"
        },
        {
          "indexed": false,
          "internalType": "uint256",
          "name": "timeOfTransaction",
          "type": "uint256"
        }
      ],
      "name": "walletOwnerAdded",
      "type": "event"
    },
    {
      "anonymous": false,
      "inputs": [
        {
          "indexed": false,
          "internalType": "address",
          "name": "removedBy",
          "type": "address"
        },
        {
          "indexed": false,
          "internalType": "address",
          "name": "ownerRemoved",
          "type": "address"
        },
        {
          "indexed": false,
          "internalType": "uint256",
          "name": "timeOfTransaction",
          "type": "uint256"
        }
      ],
      "name": "walletOwnerRemoved",
      "type": "event"
    },
    {
      "inputs": [
        {
          "internalType": "address",
          "name": "",
          "type": "address"
        }
      ],
      "name": "balancesToWithdraw",
      "outputs": [
        {
          "internalType": "uint256",
          "name": "",
          "type": "uint256"
        }
      ],
      "stateMutability": "view",
      "type": "function",
      "constant": true
    },
    {
      "inputs": [
        {
          "internalType": "address",
          "name": "",
          "type": "address"
        }
      ],
      "name": "tickerToWithdraw",
      "outputs": [
        {
          "internalType": "string",
          "name": "",
          "type": "string"
        }
      ],
      "stateMutability": "view",
      "type": "function",
      "constant": true
    },
    {
      "inputs": [
        {
          "internalType": "address",
          "name": "",
          "type": "address"
        }
      ],
      "name": "withdrawalInProcess",
      "outputs": [
        {
          "internalType": "bool",
          "name": "",
          "type": "bool"
        }
      ],
      "stateMutability": "view",
      "type": "function",
      "constant": true
    },
    {
      "inputs": [
        {
          "internalType": "string",
          "name": "ticker",
          "type": "string"
        },
        {
          "internalType": "address",
          "name": "_tokenAddress",
          "type": "address"
        }
      ],
      "name": "addToken",
      "outputs": [],
      "stateMutability": "nonpayable",
      "type": "function"
    },
    {
      "inputs": [
        {
          "internalType": "address",
          "name": "owner",
          "type": "address"
        },
        {
          "internalType": "address",
          "name": "walletAddress",
          "type": "address"
        },
        {
          "internalType": "address",
          "name": "_address",
          "type": "address"
        }
      ],
      "name": "addWalletOwner",
      "outputs": [],
      "stateMutability": "nonpayable",
      "type": "function"
    },
    {
      "inputs": [
        {
          "internalType": "address",
          "name": "owner",
          "type": "address"
        },
        {
          "internalType": "address",
          "name": "walletAddress",
          "type": "address"
        },
        {
          "internalType": "address",
          "name": "_address",
          "type": "address"
        }
      ],
      "name": "removeWalletOwner",
      "outputs": [],
      "stateMutability": "nonpayable",
      "type": "function"
    },
    {
      "inputs": [
        {
          "internalType": "string",
          "name": "ticker",
          "type": "string"
        },
        {
          "internalType": "uint256",
          "name": "amount",
          "type": "uint256"
        }
      ],
      "name": "deposit",
      "outputs": [],
      "stateMutability": "payable",
      "type": "function",
      "payable": true
    },
    {
      "inputs": [
        {
          "internalType": "string",
          "name": "ticker",
          "type": "string"
        },
        {
          "internalType": "uint256",
          "name": "_amount",
          "type": "uint256"
        }
      ],
      "name": "initiateWithdrawal",
      "outputs": [],
      "stateMutability": "nonpayable",
      "type": "function"
    },
    {
      "inputs": [],
      "name": "withdraw",
      "outputs": [],
      "stateMutability": "nonpayable",
      "type": "function"
    },
    {
      "inputs": [
        {
          "internalType": "string",
          "name": "ticker",
          "type": "string"
        },
        {
          "internalType": "address payable",
          "name": "receiver",
          "type": "address"
        },
        {
          "internalType": "uint256",
          "name": "amount",
          "type": "uint256"
        }
      ],
      "name": "createTransferRequest",
      "outputs": [],
      "stateMutability": "nonpayable",
      "type": "function"
    },
    {
      "inputs": [
        {
          "internalType": "string",
          "name": "ticker",
          "type": "string"
        },
        {
          "internalType": "uint256",
          "name": "id",
          "type": "uint256"
        }
      ],
      "name": "cancelTransferRequest",
      "outputs": [],
      "stateMutability": "nonpayable",
      "type": "function"
    },
    {
      "inputs": [
        {
          "internalType": "string",
          "name": "ticker",
          "type": "string"
        },
        {
          "internalType": "uint256",
          "name": "id",
          "type": "uint256"
        }
      ],
      "name": "approveTransferRequest",
      "outputs": [],
      "stateMutability": "nonpayable",
      "type": "function"
    },
    {
      "inputs": [
        {
          "internalType": "uint256",
          "name": "id",
          "type": "uint256"
        }
      ],
      "name": "getApprovals",
      "outputs": [
        {
          "internalType": "bool",
          "name": "",
          "type": "bool"
        }
      ],
      "stateMutability": "view",
      "type": "function",
      "constant": true
    },
    {
      "inputs": [],
      "name": "getTransferRequests",
      "outputs": [
        {
          "components": [
            {
              "internalType": "string",
              "name": "ticker",
              "type": "string"
            },
            {
              "internalType": "address",
              "name": "sender",
              "type": "address"
            },
            {
              "internalType": "address payable",
              "name": "receiver",
              "type": "address"
            },
            {
              "internalType": "uint256",
              "name": "amount",
              "type": "uint256"
            },
            {
              "internalType": "uint256",
              "name": "id",
              "type": "uint256"
            },
            {
              "internalType": "uint256",
              "name": "approvals",
              "type": "uint256"
            },
            {
              "internalType": "uint256",
              "name": "timeOfTransaction",
              "type": "uint256"
            }
          ],
          "internalType": "struct MultiSigTA.Transfer[]",
          "name": "",
          "type": "tuple[]"
        }
      ],
      "stateMutability": "view",
      "type": "function",
      "constant": true
    },
    {
      "inputs": [
        {
          "internalType": "string",
          "name": "ticker",
          "type": "string"
        }
      ],
      "name": "getBalance",
      "outputs": [
        {
          "internalType": "uint256",
          "name": "",
          "type": "uint256"
        }
      ],
      "stateMutability": "view",
      "type": "function",
      "constant": true
    },
    {
      "inputs": [],
      "name": "getApprovalLimit",
      "outputs": [
        {
          "internalType": "uint256",
          "name": "",
          "type": "uint256"
        }
      ],
      "stateMutability": "view",
      "type": "function",
      "constant": true
    },
    {
      "inputs": [],
      "name": "getContractBalance",
      "outputs": [
        {
          "internalType": "uint256",
          "name": "",
          "type": "uint256"
        }
      ],
      "stateMutability": "view",
      "type": "function",
      "constant": true
    },
    {
      "inputs": [],
      "name": "getWalletOwners",
      "outputs": [
        {
          "internalType": "address[]",
          "name": "",
          "type": "address[]"
        }
      ],
      "stateMutability": "view",
      "type": "function",
      "constant": true
    },
    {
      "inputs": [],
      "name": "getTokenList",
      "outputs": [
        {
          "internalType": "string[]",
          "name": "",
          "type": "string[]"
        }
      ],
      "stateMutability": "view",
      "type": "function",
      "constant": true
    }
  ],
  "bytecode": "0x60806040526000600455600060055560006006553480156200002057600080fd5b5060008054336001600160a01b0319918216811783556002805460018181018355948290527f405787fa12a823e0f2b7631cc41b3ba8828b3321ca811111fa75cd3aa3bb5ace018054909316909117909155546200007f9190620000ed565b600390815560078054600181018255600091909152604080518082019091529182526208aa8960eb1b60208301527fa66cc928b5edb82af9bd49922954155ab7b0942694bea4ce44661d9a8736c6880190620000dc9082620001b8565b506008805460ff1916905562000284565b6000828210156200010e57634e487b7160e01b600052601160045260246000fd5b500390565b634e487b7160e01b600052604160045260246000fd5b600181811c908216806200013e57607f821691505b6020821081036200015f57634e487b7160e01b600052602260045260246000fd5b50919050565b601f821115620001b357600081815260208120601f850160051c810160208610156200018e5750805b601f850160051c820191505b81811015620001af578281556001016200019a565b5050505b505050565b81516001600160401b03811115620001d457620001d462000113565b620001ec81620001e5845462000129565b8462000165565b602080601f8311600181146200022457600084156200020b5750858301515b600019600386901b1c1916600185901b178555620001af565b600085815260208120601f198616915b82811015620002555788860151825594840194600190910190840162000234565b5085821015620002745787850151600019600388901b60f8161c191681555b5050505050600190811b01905550565b61388b80620002946000396000f3fe6080604052600436106101145760003560e01c80638a94d416116100a0578063a7fbd80d11610064578063a7fbd80d146102e8578063b0b22c2c14610308578063ce3b3e8814610328578063d2381c7314610348578063e6c1e1371461037557600080fd5b80638a94d416146102515780638e27d719146102735780638f03144314610286578063a04ef145146102a6578063a4e360c8146102c857600080fd5b80634e67d1d6116100e75780634e67d1d6146101a95780636edb0503146101c95780636f9fb98a146102095780637278a1fa1461021c57806380735a5a1461023157600080fd5b8063273cbaa0146101195780633a51d246146101445780633ccfd60b146101725780634071e6d914610189575b600080fd5b34801561012557600080fd5b5061012e6103a2565b60405161013b9190612e5f565b60405180910390f35b34801561015057600080fd5b5061016461015f366004612f86565b61047b565b60405190815260200161013b565b34801561017e57600080fd5b506101876104ae565b005b34801561019557600080fd5b506101876101a4366004612fd8565b61095e565b3480156101b557600080fd5b506101876101c4366004613023565b610bb9565b3480156101d557600080fd5b506101f96101e4366004613068565b600c6020526000908152604090205460ff1681565b604051901515815260200161013b565b34801561021557600080fd5b5047610164565b34801561022857600080fd5b50610164610f8f565b34801561023d57600080fd5b5061018761024c366004613023565b61101d565b34801561025d57600080fd5b50610266611468565b60405161013b919061308c565b610187610281366004613023565b61154e565b34801561029257600080fd5b506101876102a1366004612fd8565b611923565b3480156102b257600080fd5b506102bb611b01565b60405161013b91906130d9565b3480156102d457600080fd5b506101f96102e336600461318e565b611cc6565b3480156102f457600080fd5b50610187610303366004613023565b611d71565b34801561031457600080fd5b506101876103233660046131a7565b611ff9565b34801561033457600080fd5b506101876103433660046131f9565b6122d5565b34801561035457600080fd5b50610368610363366004613068565b6126c4565b60405161013b9190613253565b34801561038157600080fd5b50610164610390366004613068565b600e6020526000908152604090205481565b60606007805480602002602001604051908101604052809291908181526020016000905b828210156104725783829060005260206000200180546103e590613266565b80601f016020809104026020016040519081016040528092919081815260200182805461041190613266565b801561045e5780601f106104335761010080835404028352916020019161045e565b820191906000526020600020905b81548152906001019060200180831161044157829003601f168201915b5050505050815260200190600101906103c6565b50505050905090565b33600090815260096020526040808220905161049890849061329a565b9081526020016040518091039020549050919050565b6000805b60025481101561050e57336001600160a01b0316600282815481106104d9576104d96132b6565b6000918252602090912001546001600160a01b0316036104fc576001915061050e565b80610506816132e2565b9150506104b2565b5060018115151461053a5760405162461bcd60e51b8152600401610531906132fb565b60405180910390fd5b60085460ff161561055d5760405162461bcd60e51b81526004016105319061334f565b6008805460ff19166001179055336000908152600c602052604090205460ff166105c95760405162461bcd60e51b815260206004820152601c60248201527f546964616b20616461207769746864726177616c2072657175657374000000006044820152606401610531565b336000908152600b602052604090205460ff16156105f95760405162461bcd60e51b815260040161053190613386565b336000908152600b60209081526040808320805460ff19166001179055600e825280832054600f9092528220805483919061063390613266565b80601f016020809104026020016040519081016040528092919081815260200182805461065f90613266565b80156106ac5780601f10610681576101008083540402835291602001916106ac565b820191906000526020600020905b81548152906001019060200180831161068f57829003601f168201915b5050336000818152600e6020908152604080832083905580518083018252838152938352600f90915290209495506106e993509150839050613408565b50336000908152600c6020908152604091829020805460ff191690558151808301909252600382526208aa8960eb1b918101919091528151908201207f55514145c7ef4e1948f87e0eb4d28d3e34763f4d4cdf3bc449800860a9d0a00c0161079b5760405133908390600081818185875af1925050503d806000811461078b576040519150601f19603f3d011682016040523d82523d6000602084013e610790565b606091505b505080935050610882565b60006001600160a01b0316600d826040516107b6919061329a565b908152604051908190036020019020600101546001600160a01b0316036107ef5760405162461bcd60e51b8152600401610531906134c8565b600d816040516107ff919061329a565b9081526040519081900360200181206001015463a9059cbb60e01b8252336004830152602482018490526001600160a01b03169063a9059cbb906044016020604051808303816000875af115801561085b573d6000803e3d6000fd5b505050506040513d601f19601f8201168201806040525081019061087f91906134f6565b92505b8261089f5760405162461bcd60e51b815260040161053190613518565b336000908152600960205260409081902090518391906108c090849061329a565b908152602001604051809103902060008282546108dd9190613547565b90915550506005546040517f6a647eacc9e98792655e8dba08e3167440b93e02ef76e8e3330fa10a27b4ecbf9161091c9184913391879190429061355e565b60405180910390a1336000908152600b60205260408120805460ff191690556005805491610949836132e2565b90915550506008805460ff1916905550505050565b6000805b6002548110156109be57336001600160a01b031660028281548110610989576109896132b6565b6000918252602090912001546001600160a01b0316036109ac57600191506109be565b806109b6816132e2565b915050610962565b506001811515146109e15760405162461bcd60e51b8152600401610531906132fb565b600080805b600254811015610a4557866001600160a01b031660028281548110610a0d57610a0d6132b6565b6000918252602090912001546001600160a01b031603610a335760019250809150610a45565b80610a3d816132e2565b9150506109e6565b50600182151514610a985760405162461bcd60e51b815260206004820152601c60248201527f77616c6c6574206f776e657220746964616b20746572646574656374000000006044820152606401610531565b60028054610aa890600190613547565b81548110610ab857610ab86132b6565b600091825260209091200154600280546001600160a01b039092169183908110610ae457610ae46132b6565b9060005260206000200160006101000a8154816001600160a01b0302191690836001600160a01b031602179055506002805480610b2357610b2361359e565b600082815260209020810160001990810180546001600160a01b0319169055019055600254610b5490600190613547565b600355604080513381526001600160a01b0388166020820152428183015290517fd1f329271e4a98b0181a7d91618a0a5de6f42a1aaf4c1362493d829eaf405a8a9181900360600190a1610ba78561275e565b610bb18685612780565b505050505050565b6000805b600254811015610c1957336001600160a01b031660028281548110610be457610be46132b6565b6000918252602090912001546001600160a01b031603610c075760019150610c19565b80610c11816132e2565b915050610bbd565b50600181151514610c3c5760405162461bcd60e51b8152600401610531906132fb565b60008060005b601054811015610ca0578460108281548110610c6057610c606132b6565b90600052602060002090600702016004015403610c805760019250610ca0565b81610c8a816132e2565b9250508080610c98906132e2565b915050610c42565b5081610cbe5760405162461bcd60e51b8152600401610531906135b4565b336000908152600a6020908152604080832087845290915290205460ff1615610d4f5760405162461bcd60e51b815260206004820152603960248201527f746964616b20646170617420617070726f76652070616461207472616e73616b60448201527f7369207472616e73666572206b65647561206b616c696e7961000000000000006064820152608401610531565b336001600160a01b031660108281548110610d6c57610d6c6132b6565b60009182526020909120600160079092020101546001600160a01b031603610deb5760405162461bcd60e51b815260206004820152602c60248201527f746964616b20646170617420617070726f76652070616461207472616e73616360448201526b74696f6e207072696261646960a01b6064820152608401610531565b336000908152600a602090815260408083208784529091529020805460ff191660011790556010805482908110610e2457610e246132b6565b600091825260208220600560079092020101805491610e42836132e2565b91905055507fead8052a59bd99f1b0115f4da8e862ebc15be06d11ad168b737b8e6dae0886c8853360108481548110610e7d57610e7d6132b6565b906000526020600020906007020160020160009054906101000a90046001600160a01b031660108581548110610eb557610eb56132b6565b90600052602060002090600702016003015460108681548110610eda57610eda6132b6565b90600052602060002090600702016004015460108781548110610eff57610eff6132b6565b90600052602060002090600702016005015460108881548110610f2457610f246132b6565b906000526020600020906007020160060154604051610f4997969594939291906135fc565b60405180910390a160035460108281548110610f6757610f676132b6565b90600052602060002090600702016005015403610f8857610f8885826127ef565b5050505050565b600080805b600254811015610ff057336001600160a01b031660028281548110610fbb57610fbb6132b6565b6000918252602090912001546001600160a01b031603610fde5760019150610ff0565b80610fe8816132e2565b915050610f94565b506001811515146110135760405162461bcd60e51b8152600401610531906132fb565b60035491505b5090565b6000805b60025481101561107d57336001600160a01b031660028281548110611048576110486132b6565b6000918252602090912001546001600160a01b03160361106b576001915061107d565b80611075816132e2565b915050611021565b506001811515146110a05760405162461bcd60e51b8152600401610531906132fb565b60008060005b6010548110156111045784601082815481106110c4576110c46132b6565b906000526020600020906007020160040154036110e45760019250611104565b816110ee816132e2565b92505080806110fc906132e2565b9150506110a6565b50336001600160a01b031660108281548110611122576111226132b6565b60009182526020909120600160079092020101546001600160a01b03161461115c5760405162461bcd60e51b8152600401610531906135b4565b816111a95760405162461bcd60e51b815260206004820152601f60248201527f7472616e73666572207265717565737420746964616b207465727365646961006044820152606401610531565b601081815481106111bc576111bc6132b6565b90600052602060002090600702016003015460096000336001600160a01b03166001600160a01b0316815260200190815260200160002086604051611201919061329a565b9081526020016040518091039020600082825461121e9190613649565b90915550506010805461123390600190613547565b81548110611243576112436132b6565b906000526020600020906007020160108281548110611264576112646132b6565b600091825260209091206007909102018061127f8382613661565b5060018281015490820180546001600160a01b039283166001600160a01b0319918216179091556002808501549084018054919093169116179055600380830154908201556004808301549082015560058083015490820155600691820154910155601080547f88ac4e01306872c0a5f289baf13af804eedb981db2018261cf8afed94bd9e19b9187913391908590811061131c5761131c6132b6565b906000526020600020906007020160020160009054906101000a90046001600160a01b031660108581548110611354576113546132b6565b90600052602060002090600702016003015460108681548110611379576113796132b6565b9060005260206000209060070201600401546010878154811061139e5761139e6132b6565b906000526020600020906007020160050154601088815481106113c3576113c36132b6565b9060005260206000209060070201600601546040516113e897969594939291906135fc565b60405180910390a160108054806114015761140161359e565b600082815260208120600019909201916007830201906114218282612db5565b506001810180546001600160a01b03199081169091556002820180549091169055600060038201819055600482018190556005820181905560069091015590555050505050565b60606000805b6002548110156114ca57336001600160a01b031660028281548110611495576114956132b6565b6000918252602090912001546001600160a01b0316036114b857600191506114ca565b806114c2816132e2565b91505061146e565b506001811515146114ed5760405162461bcd60e51b8152600401610531906132fb565b600280548060200260200160405190810160405280929190818152602001828054801561154357602002820191906000526020600020905b81546001600160a01b03168152600190910190602001808311611525575b505050505091505090565b6000805b6002548110156115ae57336001600160a01b031660028281548110611579576115796132b6565b6000918252602090912001546001600160a01b03160361159c57600191506115ae565b806115a6816132e2565b915050611552565b506001811515146115d15760405162461bcd60e51b8152600401610531906132fb565b60085460ff16156115f45760405162461bcd60e51b81526004016105319061334f565b6008805460ff1916600117905533600090815260096020526040808220905161161e90869061329a565b908152602001604051809103902054101561167b5760405162461bcd60e51b815260206004820152601b60248201527f746964616b206461706174206465706f7369742076616c7565203000000000006044820152606401610531565b336000908152600b602052604090205460ff16156116ab5760405162461bcd60e51b815260040161053190613386565b336000908152600b6020908152604091829020805460ff191660011790558151808301909252600382526208aa8960eb1b918101919091528351908401207f55514145c7ef4e1948f87e0eb4d28d3e34763f4d4cdf3bc449800860a9d0a00c0161175957336000908152600960205260409081902090516208aa8960eb1b81523491906003019081526020016040518091039020600082825461174e9190613649565b909155506118a99050565b60006001600160a01b0316600d84604051611774919061329a565b908152604051908190036020019020600101546001600160a01b0316036117ad5760405162461bcd60e51b8152600401610531906134c8565b6000600d846040516117bf919061329a565b908152604051908190036020018120600101546323b872dd60e01b8252336004830152306024830152604482018590526001600160a01b0316906323b872dd906064016020604051808303816000875af1158015611821573d6000803e3d6000fd5b505050506040513d601f19601f8201168201806040525081019061184591906134f6565b9050806118645760405162461bcd60e51b815260040161053190613518565b3360009081526009602052604090819020905184919061188590879061329a565b908152602001604051809103902060008282546118a29190613649565b9091555050505b7f41751252894a74bd975de630158c4e47bb25c36d9ce7ad90383d86d391d2be12833334600454426040516118e295949392919061355e565b60405180910390a1336000908152600b60205260408120805460ff19169055600480549161190f836132e2565b90915550506008805460ff19169055505050565b6000805b60025481101561198357336001600160a01b03166002828154811061194e5761194e6132b6565b6000918252602090912001546001600160a01b0316036119715760019150611983565b8061197b816132e2565b915050611927565b506001811515146119a65760405162461bcd60e51b8152600401610531906132fb565b60005b600254811015611a4457846001600160a01b0316600282815481106119d0576119d06132b6565b6000918252602090912001546001600160a01b031603611a325760405162461bcd60e51b815260206004820152601b60248201527f63616e6e6f7420616464206475706c6963617465206f776e65727300000000006044820152606401610531565b80611a3c816132e2565b9150506119a9565b50600280546001808201835560008390527f405787fa12a823e0f2b7631cc41b3ba8828b3321ca811111fa75cd3aa3bb5ace90910180546001600160a01b0319166001600160a01b0388161790559054611a9e9190613547565b600355604080513381526001600160a01b0386166020820152428183015290517f43abcff3409244ec1056224394af5f818e9a74866f0a11bfee2ad52f68ad6fb99181900360600190a1611af18361275e565b611afb8483612d79565b50505050565b60606000805b600254811015611b6357336001600160a01b031660028281548110611b2e57611b2e6132b6565b6000918252602090912001546001600160a01b031603611b515760019150611b63565b80611b5b816132e2565b915050611b07565b50600181151514611b865760405162461bcd60e51b8152600401610531906132fb565b6010805480602002602001604051908101604052809291908181526020016000905b82821015611cbc57838290600052602060002090600702016040518060e0016040529081600082018054611bdb90613266565b80601f0160208091040260200160405190810160405280929190818152602001828054611c0790613266565b8015611c545780601f10611c2957610100808354040283529160200191611c54565b820191906000526020600020905b815481529060010190602001808311611c3757829003601f168201915b50505091835250506001828101546001600160a01b03908116602080850191909152600285015490911660408401526003840154606084015260048401546080840152600584015460a084015260069093015460c09092019190915291835292019101611ba8565b5050505091505090565b600080805b600254811015611d2757336001600160a01b031660028281548110611cf257611cf26132b6565b6000918252602090912001546001600160a01b031603611d155760019150611d27565b80611d1f816132e2565b915050611ccb565b50600181151514611d4a5760405162461bcd60e51b8152600401610531906132fb565b336000908152600a6020908152604080832086845290915290205460ff1691505b50919050565b6000805b600254811015611dd157336001600160a01b031660028281548110611d9c57611d9c6132b6565b6000918252602090912001546001600160a01b031603611dbf5760019150611dd1565b80611dc9816132e2565b915050611d75565b50600181151514611df45760405162461bcd60e51b8152600401610531906132fb565b60008211611e445760405162461bcd60e51b815260206004820152601d60248201527f416d6f756e74206d7573742062652067726561746572207468616e20300000006044820152606401610531565b33600090815260096020526040908190209051839190611e6590869061329a565b9081526020016040518091039020541015611eb85760405162461bcd60e51b8152602060048201526013602482015272062616c616e636520746964616b2063756b757606c1b6044820152606401610531565b336000908152600c602052604090205460ff1615611f185760405162461bcd60e51b815260206004820152601d60248201527f5769746864726177616c207265717565737420696e2070726f636573730000006044820152606401610531565b60408051808201909152600381526208aa8960eb1b6020918201528351908401207faaaebeba3810b1e6b70781f14b2d72c1cb89c0b2b320c43bb67ff79f562f5ff414611fb35760006001600160a01b0316600d84604051611f7a919061329a565b908152604051908190036020019020600101546001600160a01b031603611fb35760405162461bcd60e51b8152600401610531906134c8565b336000908152600e60209081526040808320859055600f9091529020611fd98482613408565b5050336000908152600c60205260409020805460ff191660011790555050565b6000805b60025481101561205957336001600160a01b031660028281548110612024576120246132b6565b6000918252602090912001546001600160a01b0316036120475760019150612059565b80612051816132e2565b915050611ffd565b5060018115151461207c5760405162461bcd60e51b8152600401610531906132fb565b60005b600754811015612122578380519060200120600782815481106120a4576120a46132b6565b906000526020600020016040516120bb9190613734565b6040518091039020036121105760405162461bcd60e51b815260206004820152601f60248201527f746964616b2064617061742061646420746f6b656e73206475706c696b6174006044820152606401610531565b8061211a816132e2565b91505061207f565b508280519060200120826001600160a01b03166395d89b416040518163ffffffff1660e01b8152600401600060405180830381865afa158015612169573d6000803e3d6000fd5b505050506040513d6000823e601f3d908101601f1916820160405261219191908101906137aa565b80519060200120146121e55760405162461bcd60e51b815260206004820152601f60248201527f746f6b656e20746964616b2074657273656469612070616461204552433230006044820152606401610531565b6040518060400160405280848152602001836001600160a01b0316815250600d84604051612213919061329a565b908152604051908190036020019020815181906122309082613408565b5060209190910151600191820180546001600160a01b0319166001600160a01b039092169190911790556007805491820181556000527fa66cc928b5edb82af9bd49922954155ab7b0942694bea4ce44661d9a8736c688016122928482613408565b507fe6887a88bb2477605d9b68e33f64a263587018a6a232f3b234ba1b78c96b84f2338484426040516122c89493929190613821565b60405180910390a1505050565b6000805b60025481101561233557336001600160a01b031660028281548110612300576123006132b6565b6000918252602090912001546001600160a01b0316036123235760019150612335565b8061232d816132e2565b9150506122d9565b506001811515146123585760405162461bcd60e51b8152600401610531906132fb565b60408051808201909152600381526208aa8960eb1b60209182015284519085012084907faaaebeba3810b1e6b70781f14b2d72c1cb89c0b2b320c43bb67ff79f562f5ff4146123f55760006001600160a01b0316600d826040516123bc919061329a565b908152604051908190036020019020600101546001600160a01b0316036123f55760405162461bcd60e51b8152600401610531906134c8565b3360009081526009602052604090819020905184919061241690889061329a565b90815260200160405180910390205410156124835760405162461bcd60e51b815260206004820152602760248201527f66756e647320746964616b2063756b757020756e74756b2063726561746520746044820152663930b739b332b960c91b6064820152608401610531565b60005b60025481101561253757846001600160a01b0316600282815481106124ad576124ad6132b6565b6000918252602090912001546001600160a01b0316036125255760405162461bcd60e51b815260206004820152602d60248201527f746964616b2062697361207472616e736665722066756e64732070616461207760448201526c616c6c6574207072696261646960981b6064820152608401610531565b8061252f816132e2565b915050612486565b503360009081526009602052604090819020905184919061255990889061329a565b908152602001604051809103902060008282546125769190613547565b90915550506040805160e0810182528681523360208201526001600160a01b03861691810191909152606081018490526006546080820152600060a082018190524260c0830152601080546001810182559152815160079091027f1b6847dc741a1b0cd08d278845f9d819d87b734759afb55fe2de5cb82a9ae672019081906125ff9082613408565b5060208201516001820180546001600160a01b039283166001600160a01b0319918216179091556040840151600284018054919093169116179055606082015160038201556080820151600482015560a0820151600582015560c0909101516006918201558054906000612672836132e2565b91905055507f9cc5df05955d08828d561f92ad3f6b82c78a55cf7d3dedacffacc4f694faf9be853386866006546000426040516126b597969594939291906135fc565b60405180910390a15050505050565b600f60205260009081526040902080546126dd90613266565b80601f016020809104026020016040519081016040528092919081815260200182805461270990613266565b80156127565780601f1061272b57610100808354040283529160200191612756565b820191906000526020600020905b81548152906001019060200180831161273957829003601f168201915b505050505081565b600180546001600160a01b0319166001600160a01b0392909216919091179055565b60015460405163628bf69160e01b81526001600160a01b038481166004830152838116602483015290911690819063628bf691906044015b600060405180830381600087803b1580156127d257600080fd5b505af11580156127e6573d6000803e3d6000fd5b50505050505050565b60085460ff16156128125760405162461bcd60e51b81526004016105319061334f565b6008805460ff19166001179055336000908152600b602052604090205460ff161561284f5760405162461bcd60e51b815260040161053190613386565b336000908152600b60205260408120805460ff19166001179055601080548390811061287d5761287d6132b6565b90600052602060002090600702016003015460096000601085815481106128a6576128a66132b6565b60009182526020808320600260079093020191909101546001600160a01b03168352820192909252604090810190912090516128e390869061329a565b908152602001604051809103902060008282546129009190613649565b909155505060408051808201909152600381526208aa8960eb1b6020918201528351908401207f55514145c7ef4e1948f87e0eb4d28d3e34763f4d4cdf3bc449800860a9d0a00c016129f5576010828154811061295f5761295f6132b6565b6000918252602090912060026007909202010154601080546001600160a01b039092169184908110612993576129936132b6565b90600052602060002090600702016003015460405160006040518083038185875af1925050503d80600081146129e5576040519150601f19603f3d011682016040523d82523d6000602084013e6129ea565b606091505b505080915050612afd565b600d83604051612a05919061329a565b90815260405190819003602001902060010154601080546001600160a01b039092169163a9059cbb919085908110612a3f57612a3f6132b6565b906000526020600020906007020160020160009054906101000a90046001600160a01b031660108581548110612a7757612a776132b6565b60009182526020909120600360079092020101546040516001600160e01b031960e085901b1681526001600160a01b03909216600483015260248201526044016020604051808303816000875af1158015612ad6573d6000803e3d6000fd5b505050506040513d601f19601f82011682018060405250810190612afa91906134f6565b90505b80612b1a5760405162461bcd60e51b815260040161053190613518565b7fdeea4c72b502b4bd7dce3c793e57c46bb32f3b2f66613d54a765e7585f520a2c833360108581548110612b5057612b506132b6565b906000526020600020906007020160020160009054906101000a90046001600160a01b031660108681548110612b8857612b886132b6565b90600052602060002090600702016003015460108781548110612bad57612bad6132b6565b90600052602060002090600702016004015460108881548110612bd257612bd26132b6565b90600052602060002090600702016005015460108981548110612bf757612bf76132b6565b906000526020600020906007020160060154604051612c1c97969594939291906135fc565b60405180910390a1336000908152600b60205260409020805460ff1916905560108054612c4b90600190613547565b81548110612c5b57612c5b6132b6565b906000526020600020906007020160108381548110612c7c57612c7c6132b6565b6000918252602090912060079091020180612c978382613661565b5060018281015490820180546001600160a01b039283166001600160a01b03199182161790915560028085015490840180549190931691161790556003808301549082015560048083015490820155600580830154908201556006918201549101556010805480612d0a57612d0a61359e565b60008281526020812060001990920191600783020190612d2a8282612db5565b506001810180546001600160a01b031990811690915560028201805490911690556000600382018190556004820181905560058201819055600690910155905550506008805460ff1916905550565b60015460405163269ae8b160e01b81526001600160a01b038481166004830152838116602483015290911690819063269ae8b1906044016127b8565b508054612dc190613266565b6000825580601f10612dd1575050565b601f016020900490600052602060002090810190612def9190612df2565b50565b5b808211156110195760008155600101612df3565b60005b83811015612e22578181015183820152602001612e0a565b83811115611afb5750506000910152565b60008151808452612e4b816020860160208601612e07565b601f01601f19169290920160200192915050565b6000602080830181845280855180835260408601915060408160051b870101925083870160005b82811015612eb457603f19888603018452612ea2858351612e33565b94509285019290850190600101612e86565b5092979650505050505050565b634e487b7160e01b600052604160045260246000fd5b604051601f8201601f1916810167ffffffffffffffff81118282101715612f0057612f00612ec1565b604052919050565b600067ffffffffffffffff821115612f2257612f22612ec1565b50601f01601f191660200190565b600082601f830112612f4157600080fd5b8135612f54612f4f82612f08565b612ed7565b818152846020838601011115612f6957600080fd5b816020850160208301376000918101602001919091529392505050565b600060208284031215612f9857600080fd5b813567ffffffffffffffff811115612faf57600080fd5b612fbb84828501612f30565b949350505050565b6001600160a01b0381168114612def57600080fd5b600080600060608486031215612fed57600080fd5b8335612ff881612fc3565b9250602084013561300881612fc3565b9150604084013561301881612fc3565b809150509250925092565b6000806040838503121561303657600080fd5b823567ffffffffffffffff81111561304d57600080fd5b61305985828601612f30565b95602094909401359450505050565b60006020828403121561307a57600080fd5b813561308581612fc3565b9392505050565b6020808252825182820181905260009190848201906040850190845b818110156130cd5783516001600160a01b0316835292840192918401916001016130a8565b50909695505050505050565b60006020808301818452808551808352604092508286019150828160051b87010184880160005b8381101561318057603f19898403018552815160e0815181865261312682870182612e33565b838b01516001600160a01b03908116888d01528a850151168a880152606080850151908801526080808501519088015260a0808501519088015260c093840151939096019290925250509386019390860190600101613100565b509098975050505050505050565b6000602082840312156131a057600080fd5b5035919050565b600080604083850312156131ba57600080fd5b823567ffffffffffffffff8111156131d157600080fd5b6131dd85828601612f30565b92505060208301356131ee81612fc3565b809150509250929050565b60008060006060848603121561320e57600080fd5b833567ffffffffffffffff81111561322557600080fd5b61323186828701612f30565b935050602084013561324281612fc3565b929592945050506040919091013590565b6020815260006130856020830184612e33565b600181811c9082168061327a57607f821691505b602082108103611d6b57634e487b7160e01b600052602260045260246000fd5b600082516132ac818460208701612e07565b9190910192915050565b634e487b7160e01b600052603260045260246000fd5b634e487b7160e01b600052601160045260246000fd5b6000600182016132f4576132f46132cc565b5060010190565b60208082526034908201527f68616e79612077616c6c6574206f776e6572732079616e672062697361206d656040820152736d616e6767696c2066756e6374696f6e20696e6960601b606082015260800190565b60208082526018908201527f5265656e7472616e63792067756172643a206c6f636b65640000000000000000604082015260600190565b60208082526019908201527f70726f73657320736564616e67206265726c616e6773756e6700000000000000604082015260600190565b601f82111561340357600081815260208120601f850160051c810160208610156133e45750805b601f850160051c820191505b81811015610bb1578281556001016133f0565b505050565b815167ffffffffffffffff81111561342257613422612ec1565b613436816134308454613266565b846133bd565b602080601f83116001811461346b57600084156134535750858301515b600019600386901b1c1916600185901b178555610bb1565b600085815260208120601f198616915b8281101561349a5788860151825594840194600190910190840161347b565b50858210156134b85787850151600019600388901b60f8161c191681555b5050505050600190811b01905550565b602080825260149082015273746f6b656e20746964616b20746572736564696160601b604082015260600190565b60006020828403121561350857600080fd5b8151801515811461308557600080fd5b602080825260159082015274115490cc8c081d1c985b9cd9995c8819985a5b1959605a1b604082015260600190565b600082821015613559576135596132cc565b500390565b60a08152600061357160a0830188612e33565b6001600160a01b039690961660208301525060408101939093526060830191909152608090910152919050565b634e487b7160e01b600052603160045260246000fd5b60208082526028908201527f68616e7961207472616e736665722063726561746f722079616e6720646170616040820152671d0818d85b98d95b60c21b606082015260800190565b60e08152600061360f60e083018a612e33565b6001600160a01b0398891660208401529690971660408201526060810194909452608084019290925260a083015260c09091015292915050565b6000821982111561365c5761365c6132cc565b500190565b81810361366c575050565b6136768254613266565b67ffffffffffffffff81111561368e5761368e612ec1565b61369c816134308454613266565b6000601f8211600181146136d057600083156136b85750848201545b600019600385901b1c1916600184901b178455610f88565b600085815260209020601f19841690600086815260209020845b8381101561370a57828601548255600195860195909101906020016136ea565b50858310156134b85793015460001960f8600387901b161c19169092555050600190811b01905550565b600080835461374281613266565b6001828116801561375a576001811461376f5761379e565b60ff198416875282151583028701945061379e565b8760005260208060002060005b858110156137955781548a82015290840190820161377c565b50505082870194505b50929695505050505050565b6000602082840312156137bc57600080fd5b815167ffffffffffffffff8111156137d357600080fd5b8201601f810184136137e457600080fd5b80516137f2612f4f82612f08565b81815285602083850101111561380757600080fd5b613818826020830160208601612e07565b95945050505050565b600060018060a01b038087168352608060208401526138436080840187612e33565b9416604083015250606001529291505056fea2646970667358221220660ce0e4c9419c276bed1caa876d57d5edad2eb7073597440d4794f565ad8ed064736f6c634300080f0033",
  "immutableReferences": {},
  "source": "// SPDX-License-Identifier: GPL-3.0\r\n\r\npragma solidity ^0.8.0;\r\n\r\nimport \"../node_modules/@openzeppelin/contracts/token/ERC20/ERC20.sol\";\r\nimport \"../node_modules/@openzeppelin/contracts/token/ERC20/IERC20.sol\";\r\nimport \"./MultiSigFactory.sol\";\r\n\r\ncontract MultiSigTA {\r\n    \r\n    address mainOwner;\r\n    address multisigIntance;\r\n    address[] walletowners;\r\n    uint limit;  \r\n    uint depositId = 0;\r\n    uint withdrawalId = 0;\r\n    uint transferId = 0;\r\n    string[] tokenList;\r\n    bool private locked;\r\n    \r\n    constructor() {\r\n        mainOwner = msg.sender;\r\n        walletowners.push(mainOwner);\r\n        limit = walletowners.length - 1;\r\n        tokenList.push(\"ETH\");\r\n        locked = false;\r\n    }\r\n    \r\n    mapping(address => mapping(string => uint)) balance;\r\n    mapping(address => mapping(uint => bool)) approvals;\r\n    mapping(address => bool) withdrawing;\r\n    mapping(address => bool) public withdrawalInProcess;\r\n    mapping(string => Token) tokenMapping;\r\n    mapping(address => uint) public balancesToWithdraw;\r\n    mapping(address => string) public tickerToWithdraw;\r\n    \r\n    struct Token {\r\n        string ticker;\r\n        address tokenAddress;\r\n    }\r\n    \r\n    struct Transfer {\r\n        string ticker;\r\n        address sender;\r\n        address payable receiver;\r\n        uint amount;\r\n        uint id;\r\n        uint approvals;\r\n        uint timeOfTransaction;\r\n    }\r\n    \r\n    Transfer[] transferRequests;\r\n    \r\n    event walletOwnerAdded(address addedBy, address ownerAdded, uint timeOfTransaction);\r\n    event walletOwnerRemoved(address removedBy, address ownerRemoved, uint timeOfTransaction);\r\n    event fundsDeposited(string ticker, address sender, uint amount, uint depositId, uint timeOfTransaction);\r\n    event fundsWithdrawed(string ticker, address sender, uint amount, uint withdrawalId, uint timeOfTransaction);\r\n    event transferCreated(string ticker, address sender, address receiver, uint amount, uint id, uint approvals, uint timeOfTransaction);\r\n    event transferCancelled(string ticker, address sender, address receiver, uint amount, uint id, uint approvals, uint timeOfTransaction);\r\n    event transferApproved(string ticker, address sender, address receiver, uint amount, uint id, uint approvals, uint timeOfTransaction);\r\n    event fundsTransfered(string ticker, address sender, address receiver, uint amount, uint id, uint approvals, uint timeOfTransaction);\r\n    event tokenAdded(address addedBy, string ticker, address tokenAddress, uint timeOfTransaction);\r\n    \r\n    modifier onlyOwners() {\r\n       bool isOwner = false;\r\n       for (uint i = 0; i< walletowners.length; i++) {\r\n           if (walletowners[i] == msg.sender) {\r\n               isOwner = true;\r\n               break;\r\n           }\r\n       }\r\n       require(isOwner == true, \"hanya wallet owners yang bisa memanggil function ini\");\r\n       _;\r\n    }\r\n    \r\n    modifier tokenExists(string memory ticker) {\r\n        if(keccak256((bytes(ticker))) != keccak256(bytes(\"ETH\"))){\r\n            require(tokenMapping[ticker].tokenAddress != address(0), \"token tidak tersedia\");\r\n        }\r\n        _;\r\n    }\r\n    \r\n    modifier mutexApplied() {\r\n        require(!locked, \"Reentrancy guard: locked\");\r\n        locked = true;\r\n        _;\r\n        locked = false;\r\n    }\r\n\r\n    function addToken(string memory ticker, address _tokenAddress) public onlyOwners {\r\n        for (uint i = 0; i < tokenList.length; i++) {\r\n            require(keccak256(bytes(tokenList[i])) != keccak256(bytes(ticker)), \"tidak dapat add tokens duplikat\");\r\n        }\r\n        require(keccak256(bytes(ERC20(_tokenAddress).symbol())) == keccak256(bytes(ticker)),\"token tidak tersedia pada ERC20\");\r\n        tokenMapping[ticker] = Token(ticker, _tokenAddress);\r\n        tokenList.push(ticker);\r\n        emit tokenAdded(msg.sender, ticker, _tokenAddress, block.timestamp);\r\n    }\r\n        \r\n    function setMultisigContractAdress(address walletAddress) private {\r\n        multisigIntance = walletAddress;\r\n    }\r\n\r\n    function callAddOwner(address owner, address multiSigContractInstance) private {\r\n        MultiSigFactory factory = MultiSigFactory(multisigIntance);\r\n        factory.addNewWalletInstance(owner, multiSigContractInstance);\r\n    }\r\n    \r\n    function callRemoveOwner(address owner, address multiSigContractInstance) private {\r\n        MultiSigFactory factory = MultiSigFactory(multisigIntance);\r\n        factory.removeNewWalletInstance(owner, multiSigContractInstance);\r\n    }\r\n\r\n    function addWalletOwner(address owner, address walletAddress, address _address) public onlyOwners {\r\n       for (uint i = 0; i < walletowners.length; i++) {\r\n           if(walletowners[i] == owner) {\r\n               revert(\"cannot add duplicate owners\");\r\n           }\r\n       }\r\n        walletowners.push(owner);\r\n        limit = walletowners.length - 1;\r\n        emit walletOwnerAdded(msg.sender, owner, block.timestamp);\r\n        setMultisigContractAdress(walletAddress);\r\n        callAddOwner(owner, _address);\r\n    }\r\n    \r\n    function removeWalletOwner(address owner, address walletAddress, address _address) public onlyOwners {\r\n        bool hasBeenFound = false;\r\n        uint ownerIndex;\r\n        for (uint i = 0; i < walletowners.length; i++) {\r\n            if(walletowners[i] == owner) {\r\n                hasBeenFound = true;\r\n                ownerIndex = i;\r\n                break;\r\n            }\r\n        }\r\n        require(hasBeenFound == true, \"wallet owner tidak terdetect\");\r\n        walletowners[ownerIndex] = walletowners[walletowners.length - 1];\r\n        walletowners.pop();\r\n        limit = walletowners.length - 1;\r\n        emit walletOwnerRemoved(msg.sender, owner, block.timestamp);\r\n        setMultisigContractAdress(walletAddress);\r\n        callRemoveOwner(owner, _address);\r\n    }\r\n    \r\n    function deposit(string memory ticker, uint amount) public payable onlyOwners mutexApplied{\r\n        require(balance[msg.sender][ticker] >= 0, \"tidak dapat deposit value 0\");\r\n        require(!withdrawing[msg.sender], \"proses sedang berlangsung\");\r\n        withdrawing[msg.sender] = true;\r\n        if(keccak256(bytes(ticker)) == keccak256(bytes(\"ETH\"))) {\r\n            balance[msg.sender][\"ETH\"] += msg.value;\r\n        }else {\r\n            require(tokenMapping[ticker].tokenAddress != address(0), \"token tidak tersedia\");\r\n            bool transferSuccess = IERC20(tokenMapping[ticker].tokenAddress).transferFrom(msg.sender, address(this), amount);\r\n            require(transferSuccess, \"ERC20 transfer failed\");\r\n            balance[msg.sender][ticker] += amount;\r\n        }\r\n        emit fundsDeposited(ticker, msg.sender, msg.value, depositId, block.timestamp);\r\n        withdrawing[msg.sender] = false;\r\n        depositId++;\r\n    } \r\n    \r\n    function initiateWithdrawal(string memory ticker, uint _amount) public onlyOwners {\r\n        require(_amount > 0, \"Amount must be greater than 0\");\r\n        require(balance[msg.sender][ticker] >= _amount,\"balance tidak cukup\");\r\n        require(!withdrawalInProcess[msg.sender], \"Withdrawal request in process\");\r\n        if(keccak256(bytes(ticker)) != keccak256(bytes(\"ETH\"))) {\r\n            require(tokenMapping[ticker].tokenAddress != address(0), \"token tidak tersedia\");\r\n        }\r\n        balancesToWithdraw[msg.sender] = _amount;\r\n        tickerToWithdraw[msg.sender] = ticker;\r\n        withdrawalInProcess[msg.sender] = true;\r\n    }\r\n\r\n    function withdraw() public onlyOwners mutexApplied{\r\n        require(withdrawalInProcess[msg.sender], \"Tidak ada withdrawal request\");\r\n        require(!withdrawing[msg.sender], \"proses sedang berlangsung\");\r\n        withdrawing[msg.sender] = true;\r\n        bool transferSuccess = false;\r\n        uint amount = balancesToWithdraw[msg.sender];\r\n        string memory ticker = tickerToWithdraw[msg.sender];\r\n        balancesToWithdraw[msg.sender] = 0;\r\n        tickerToWithdraw[msg.sender] = \"\";\r\n        withdrawalInProcess[msg.sender] = false;\r\n        if(keccak256(bytes(ticker)) == keccak256(bytes(\"ETH\"))) {\r\n            // payable(msg.sender).transfer(amount);\r\n            (transferSuccess,) = payable(msg.sender).call{value: amount}(\"\");\r\n        }else {\r\n            require(tokenMapping[ticker].tokenAddress != address(0), \"token tidak tersedia\");\r\n            transferSuccess = IERC20(tokenMapping[ticker].tokenAddress).transfer(msg.sender, amount);\r\n        }\r\n        require(transferSuccess, \"ERC20 transfer failed\");\r\n        balance[msg.sender][ticker] -= amount;\r\n        emit fundsWithdrawed(ticker, msg.sender, amount, withdrawalId, block.timestamp);\r\n        withdrawing[msg.sender] = false;\r\n        withdrawalId++;\r\n    }\r\n    // NOTE : TokenExiz Hndle\r\n    function createTransferRequest(string memory ticker, address payable receiver, uint amount) public onlyOwners tokenExists(ticker){\r\n        require(balance[msg.sender][ticker] >= amount, \"funds tidak cukup untuk create transfer\");\r\n        for (uint i = 0; i < walletowners.length; i++) {\r\n            require(walletowners[i] != receiver, \"tidak bisa transfer funds pada wallet pribadi\");\r\n        }\r\n        balance[msg.sender][ticker] -= amount;\r\n        transferRequests.push(Transfer(ticker, msg.sender, receiver, amount, transferId, 0, block.timestamp));\r\n        transferId++;\r\n        emit transferCreated(ticker, msg.sender, receiver, amount, transferId, 0, block.timestamp);\r\n    }\r\n    \r\n    function cancelTransferRequest( string memory ticker, uint id) public onlyOwners {\r\n        // string memory ticker = transferRequests[id].ticker;\r\n        bool hasBeenFound = false;\r\n        uint transferIndex = 0;\r\n        for (uint i = 0; i < transferRequests.length; i++) {\r\n            if(transferRequests[i].id == id) {\r\n                hasBeenFound = true;\r\n                break;\r\n            }\r\n             transferIndex++;\r\n        }\r\n        \r\n        require(transferRequests[transferIndex].sender == msg.sender, \"hanya transfer creator yang dapat cancel\");\r\n        require(hasBeenFound, \"transfer request tidak tersedia\");\r\n        \r\n        balance[msg.sender][ticker] += transferRequests[transferIndex].amount;\r\n        transferRequests[transferIndex] = transferRequests[transferRequests.length - 1];\r\n        emit transferCancelled(ticker, msg.sender, transferRequests[transferIndex].receiver, transferRequests[transferIndex].amount, transferRequests[transferIndex].id, transferRequests[transferIndex].approvals, transferRequests[transferIndex].timeOfTransaction);\r\n        transferRequests.pop();\r\n    }\r\n    \r\n    function approveTransferRequest( string memory ticker, uint id) public onlyOwners {\r\n        // string memory ticker = transferRequests[id].ticker;\r\n        bool hasBeenFound = false;\r\n        uint transferIndex = 0;\r\n        for (uint i = 0; i < transferRequests.length; i++) {\r\n            if(transferRequests[i].id == id) {\r\n                hasBeenFound = true;\r\n                break;\r\n            }\r\n             transferIndex++;\r\n        }\r\n        \r\n        require(hasBeenFound, \"hanya transfer creator yang dapat cancel\");\r\n        require(approvals[msg.sender][id] == false, \"tidak dapat approve pada transaksi transfer kedua kalinya\");\r\n        require(transferRequests[transferIndex].sender != msg.sender, \"tidak dapat approve pada transaction pribadi\");\r\n        \r\n        approvals[msg.sender][id] = true;\r\n        transferRequests[transferIndex].approvals++;\r\n        \r\n        emit transferApproved(ticker, msg.sender, transferRequests[transferIndex].receiver, transferRequests[transferIndex].amount, transferRequests[transferIndex].id, transferRequests[transferIndex].approvals, transferRequests[transferIndex].timeOfTransaction);\r\n        if (transferRequests[transferIndex].approvals == limit) {\r\n            transferFunds(ticker, transferIndex);\r\n        }\r\n    }\r\n    \r\n    function transferFunds(string memory ticker, uint id) private mutexApplied{\r\n        require(!withdrawing[msg.sender], \"proses sedang berlangsung\");\r\n        withdrawing[msg.sender] = true;\r\n        bool transferSuccess = false;\r\n        balance[transferRequests[id].receiver][ticker] += transferRequests[id].amount;\r\n        if(keccak256(bytes(ticker)) == keccak256(bytes(\"ETH\"))) {\r\n            // transferRequests[id].receiver.transfer(transferRequests[id].amount);\r\n            (transferSuccess,) = transferRequests[id].receiver.call{value: transferRequests[id].amount}(\"\");\r\n        }\r\n        else {\r\n            transferSuccess = IERC20(tokenMapping[ticker].tokenAddress).transfer(transferRequests[id].receiver, transferRequests[id].amount);\r\n        }\r\n        require(transferSuccess, \"ERC20 transfer failed\");\r\n        emit fundsTransfered(ticker, msg.sender, transferRequests[id].receiver, transferRequests[id].amount, transferRequests[id].id, transferRequests[id].approvals, transferRequests[id].timeOfTransaction);\r\n        withdrawing[msg.sender] = false;\r\n        transferRequests[id] = transferRequests[transferRequests.length - 1];\r\n        transferRequests.pop();\r\n    }\r\n    \r\n    function getApprovals(uint id) public onlyOwners view returns(bool) {\r\n        return approvals[msg.sender][id];\r\n    }\r\n    \r\n    function getTransferRequests() public onlyOwners view returns(Transfer[] memory) {\r\n        return transferRequests;\r\n    }\r\n    \r\n    function getBalance(string memory ticker) public view returns(uint) {\r\n        return balance[msg.sender][ticker];\r\n    }\r\n    \r\n    function getApprovalLimit() public onlyOwners view returns (uint) {\r\n        return limit;\r\n    }\r\n    \r\n     function getContractBalance() public view returns(uint) {\r\n        return address(this).balance;\r\n    }\r\n    \r\n    function getWalletOwners() public view onlyOwners returns(address[] memory) {\r\n        return walletowners;\r\n    }\r\n   \r\n    function getTokenList() public view returns(string[] memory){\r\n        return tokenList;\r\n    }\r\n    \r\n}",
  "sourcePath": "C:\\Users\\Jason Riskova\\Downloads\\mumugggg\\onchain_multisig_wallet_dapps\\Backend\\contracts\\Multisig.sol",
  "compiler": {
    "name": "solc",
    "version": "0.8.15+commit.e14f2714.Emscripten.clang"
  },
  "schemaVersion": "3.4.16",
  "updatedAt": "2024-01-19T06:31:10.200Z",
  "networkType": "ethereum",
  "devdoc": {
    "kind": "dev",
    "methods": {},
    "version": 1
  },
  "userdoc": {
    "kind": "user",
    "methods": {},
    "version": 1
  }
}